:020000040800F2
:100000006806002439030008010F000839050008BC
:10001000F90E0008E9040008811100080000000042
:10002000000000000000000000000000110F0008A8
:10003000F104000800000000090F0008190F000873
:100040005303000853030008530300085303000838
:10005000530300085303000853030008F904000881
:100060005303000853030008530300085303000818
:100070005303000853030008530300085303000808
:1000800053030008530300085303000853030008F8
:1000900053030008530300085303000853030008E8
:1000A00053030008530300085303000853030008D8
:1000B00053030008530300085303000853030008C8
:1000C00053030008530300085303000853030008B8
:1000D00053030008530300085303000853030008A8
:1000E00053030008530300080000000053030008F6
:1000F0005303000853030008530300085303000888
:100100005303000853030008530300085303000877
:100110005303000853030008530300085303000867
:100120005303000853030008530300085303000857
:100130005303000853030008530300085303000847
:1001400000000000000000000000000000000000AF
:100150005303000853030008530300085303000827
:100160005303000853030008530300085303000817
:100170005303000853030008530300085303000807
:1001800053030008530300085303000853030008F7
:1001900053030008530300085303000853030008E7
:1001A00053030008530300085303000853030008D7
:1001B00053030008530300085303000853030008C7
:1001C00053030008530300085303000853030008B7
:1001D00053030008530300085303000853030008A7
:1001E0005303000853030008530300085303000897
:1001F0005303000853030008530300085303000887
:100200005303000853030008530300085303000876
:100210005303000853030008530300085303000866
:1002200053030008530300085303000800000000B4
:1002300053030008530300080000000053030008A4
:100240005303000853030008530300085303000836
:100250005303000853030008530300085303000826
:100260005303000853030008530300085303000816
:100270005303000853030008530300080000000064
:100280005303000853030008530300080000000054
:10029000000000005303000800F002F800F03CF8F2
:1002A0000AA090E8000C82448344AAF10107DA45D1
:1002B00001D100F031F8AFF2090EBAE80F0013F0E7
:1002C000010F18BFFB1A43F0010318476811000023
:1002D00088110000103A24BF78C878C1FAD85207B4
:1002E00024BF30C830C144BF04680C6070470000B0
:1002F0000023002400250026103A28BF78C1FBD82F
:10030000520728BF30C148BF0B6070471FB501F0CE
:100310007CF81FBD10B510BD00F0A9F81146FFF71D
:10032000F5FF00F031FF00F0C7F803B4FFF7F2FF6C
:1003300003BC00F0CFF80000094880470948004797
:10034000FEE7FEE7FEE7FEE7FEE7FEE7FEE7FEE785
:10035000FEE7FEE704480549054A064B70470000E2
:10036000B110000899020008680000246806002403
:10037000680200246802002453EA020C00F069803D
:100380002DE9F04B4FF00006002B1FBFB3FA83F5A9
:1003900003FA05F424FA05F65E4012BF1643B2FADA
:1003A00082F502FA05F4C5F120051EBF22FA05FC0C
:1003B00044EA0C04203556EA044C4FEA144418BFB2
:1003C000641C4FF000084FF00009904271EB030CE1
:1003D00039D3002919BFB1FA81F701FA07F6B0FA4B
:1003E00080F700FA07F6C7F120071EBF20FA07FCC6
:1003F00046EA0C062037B6FBF4FCA7EB0507103FD6
:1004000007F01F0BCBF120062CFA06F60CFA0BFBBB
:1004100044BFB3460026202FA4BF5E464FF0000B1A
:100420005BEA060C08BF4FF0010B19EB0B0948EB18
:100430000608ABFB027C06FB02CC0BFB03CCC01B0B
:1004400071EB0C01C1E70B46024641464846BDE848
:10045000F08B13B5084318BF4FF0FF300146AFF3E0
:100460000080BDE81C407047704770477047754674
:1004700000F02CF8AE4605006946534620F0070010
:10048000854618B020B5FFF765FFBDE820404FF066
:1004900000064FF000074FF000084FF0000BAC468D
:1004A000ACE8C009ACE8C009ACE8C009ACE8C009D8
:1004B00021F007018D46704710B50446AFF3008068
:1004C0002046BDE81040FFF730BF000000487047ED
:1004D0000800002401491820ABBEFEE726000200F8
:1004E0007047000000000000FEE700000000000070
:1004F00070470000000000008821C5F60001086870
:10050000800758BF704740F61C400222C5F6000025
:100510000A604121C1600168090609D40168090621
:100520005CBF01685FEA016102D401680906F2D587
:100530007047000000000000FEE70000000000001F
:1005400080B5017B40F2040EC5F6000E036839B396
:10055000002B49D0417BCA074AD1DEF87C209A4360
:100560008907CEF87C204AD5DEF880101943CEF8F2
:100570008010817B03294AD84FF0000CDFE801F09E
:100580005C024A50DEF800104FF0B0429943CEF8BA
:10059000001011684FF0000C194311604CE000BFCF
:1005A000DEF87C104FF0000C9943CEF87C10DEF89A
:1005B0008C10D0E901209143CEF88C10DEF89C100D
:1005C0008143CEF89C10DEF880109943CEF880105D
:1005D000DEF890109143CEF89010DEF8A01021EADA
:1005E0000000CEF8A000A8E04FF0000C24E000BF0F
:1005F000DEF87C201A438907CEF87C20B4D4DEF8DC
:1006000080109943CEF88010817B0329B4D94FF034
:10061000010C11E04FF0B0410A689A4304E000BFBA
:100620004FF0B0410A681A430A604FF0000CDEF840
:1006300000101943CEF800104368002B35D0417BE1
:10064000CA0721D1DEF88C209A438907CEF88C2086
:1006500021D5DEF890101943CEF89010817B032944
:1006600021D8DFE801F02203595D00BFDEF8201039
:100670009943CEF82010DEF81C101943CEF81C1058
:100680008368ABB959E000BFDEF88C201A438907B4
:10069000CEF88C20DDD4DEF890109943CEF890107F
:1006A000817B0329DDD94FF0010C8368002B44D0F6
:1006B000417BCA071ED1DEF89C209A438907CEF8F9
:1006C0009C201ED5DEF8A0101943CEF8A010807B28
:1006D00003281ED8DFE800F031023438DEF840008D
:1006E0009843CEF84000DEF83C001843CEF83C00BA
:1006F000604680BDDEF89C201A438907CEF89C2016
:10070000E0D4DEF8A0109943CEF8A010807B032837
:10071000E0D9012080BD00BFDEF81C10994302E043
:10072000DEF81C101943CEF81C10DEF82010194317
:10073000CEF820108368002BBAD1604680BD00BF80
:10074000DEF83C00984302E0DEF83C001843CEF8A7
:100750003C00DEF840001843CEF84000604680BD03
:100760002DE9F0430B6893FAA3F2B2FA82F233FA5E
:1007700002F659D04FF0010C0CE000BFD1E9003473
:10078000066804FB0EF72E4037430760013233FA48
:1007900002F749D00CFA02F613EA0604F6D04E68C6
:1007A00004FB04FE751E022D18D2D0F808808F6855
:1007B0000EEB4E0507FB0EF928EA0507D1F80C8071
:1007C000ED4347EA09078760D0F8049008FB03F778
:1007D00029EA03033B43436003E000BF0EEB4E03F3
:1007E000DD430B69C7682F40022E03FB0EF343EA7B
:1007F0000703C360C2D1230AB4F5807F03FB03F370
:100800004FF0240403FB03F33CBF20240EFB0EF344
:10081000D1F814800759C3EB031608FB03F327EA4A
:10082000060633430351A9E70020BDE8F08300002A
:1008300044F6D3514EF21002C1F26201CEF2000230
:10084000A0FB01014FF0FF3000EB91105060002041
:10085000906005201060704770B504460068C007BE
:1008600034D10D464EF6F31105F108032068CEF69B
:10087000FF7108400ECB08436969184308432060A4
:10088000606820F4405010436060A869A16821F4BA
:1008900040710843A060072000F032F8C0B16A68D8
:1008A000C2B1298810A3002633F811100023B0FB31
:1008B000F1F0010E000210EB520041F10001FFF7D0
:1008C0005BFD6FF31F50E06005E000BF012070BDCD
:1008D000012600E001262888E16A21F00F01084383
:1008E000E062304670BD00BF010002000400060057
:1008F00008000A000C0010002000400080000001E9
:1009000010B584B044F20044C5F60204A06D00F0B6
:10091000070005282FD8DFE800F00317212B313B13
:100920002069C0F3C200032846D8DFE800F003477F
:100930004D5300BF206849F20001C0F2D031C0F32E
:10094000C10021FA00F049E02068000113D501A898
:1009500000F032F9029804B010BD00BF206880009A
:1009600009D501A800F0F8F9029804B010BD00BF45
:100970002068400714D4002004B010BD206840F661
:100980000011C005C0F23D0101EAE07004B010BDE5
:10099000206F4FF4004101EA803004B010BD00BF69
:1009A000206849F20001C0F2D031C0F3C10021FA41
:1009B00000F004B010BD00BF00200FE040F60010B2
:1009C000C0F23D000AE000BF41F20020C0F27A0010
:1009D00004E000BF01A800F01FF80198A16941F2EE
:1009E0002442C0F60002A369C1F30321246A03F084
:1009F0000F03C4F30214515CD35C125D01F01F01BC
:100A0000C84003F01F01C84002F01F01C84004B0F5
:100A100010BD00000000000080B544F2004EC5F695
:100A2000020EDEF8282002F00302022A0AD0012A70
:100A300010D022B9DEF80020520700F1AD804FF04F
:100A4000000C10E0DEF8002041F200239203C0F217
:100A50007A0306E0DEF8002040F60013D205C0F26B
:100A60003D0303EAE27C00228260C0E90022DEF856
:100A70002830DEF83020DEF82C10C907C3F3051348
:100A80007AD19FED4B0A002B00F085806FF35F2237
:100A9000DEF82C10C90302F1010220D501EE10CAC4
:100AA00002EE103A03EE102ADEF83010C1F34621B0
:100AB000B8EE411AB8EE422A0131B8EE433A81EE5F
:100AC000021A30EE032A21EE021A02EE101AB8EED4
:100AD000422A81EE021ABCEEC11A80ED001ADEF83D
:100AE0002C10890320D501EE10CA02EE103A03EE55
:100AF000102ADEF83010C1F30641B8EE411AB8EE04
:100B0000422A0131B8EE433A81EE021A30EE032A4E
:100B100021EE021A02EE101AB8EE422A81EE021AF3
:100B2000BCEEC11A80ED011ADEF82C10490358BF43
:100B300080BD01EE10CA02EE103A03EE102ADEF874
:100B40003010C1F30661B8EE411AB8EE422A013105
:100B5000B8EE433A81EE021A30EE030A21EE000AA3
:100B600001EE101AB8EE411A80EE010ABCEEC00A7E
:100B700080ED020A80BD00BFDEF834109FED0D1A33
:100B8000C1F3CC0100EE101AB8EE400A20EE010AC3
:100B9000002B7FF47BAF80BDDEF8002049F200031C
:100BA000C0F2D033C2F3C10223FA02FC5BE700BFFC
:100BB000000000000000003980B544F2004EC5F688
:100BC000020EDEF8282002F00302022A0AD0012ACF
:100BD00010D022B9DEF80020520700F1AD804FF0AE
:100BE000000C10E0DEF8002041F200239203C0F276
:100BF0007A0306E0DEF8002040F60013D205C0F2CA
:100C00003D0303EAE27C00228260C0E90022DEF8B4
:100C10002830DEF83820DEF82C10C906C3F305337F
:100C20007AD49FED4B0A002B00F085806FF35F2292
:100C3000DEF82C10090302F1010220D501EE10CAE2
:100C400002EE103A03EE102ADEF83810C1F3462106
:100C5000B8EE411AB8EE422A0131B8EE433A81EEBD
:100C6000021A30EE032A21EE021A02EE101AB8EE32
:100C7000422A81EE021ABCEEC11A80ED001ADEF89B
:100C80002C10C90220D501EE10CA02EE103A03EE74
:100C9000102ADEF83810C1F30641B8EE411AB8EE5A
:100CA000422A0131B8EE433A81EE021A30EE032AAD
:100CB00021EE021A02EE101AB8EE422A81EE021A52
:100CC000BCEEC11A80ED011ADEF82C10890258BF63
:100CD00080BD01EE10CA02EE103A03EE102ADEF8D3
:100CE0003810C1F30661B8EE411AB8EE422A01315C
:100CF000B8EE433A81EE021A30EE030A21EE000A02
:100D000001EE101AB8EE411A80EE010ABCEEC00ADC
:100D100080ED020A80BD00BFDEF83C109FED0D1A89
:100D2000C1F3CC0100EE101AB8EE400A20EE010A21
:100D3000002B7FF47BAF80BDDEF8002049F200037A
:100D4000C0F2D033C2F3C10223FA02FC5BE700BF5A
:100D5000000000000000003910B544F20044C5F660
:100D60000204A26A02F00302022A09D0012A0FD06B
:100D70001AB92268520700F1A7804FF0000E0FE069
:100D8000226841F200239203C0F27A0306E000BF1A
:100D9000226840F60013D205C0F23D0303EAE27E6A
:100DA00000228260C0E90022A36A226CE16AC905C0
:100DB000C3F3055376D49FED490A002B18BFBEF14B
:100DC000000F00F080806FF35F22E16A490202F1B8
:100DD000010C1FD501EE10EA02EE103A03EE10CA24
:100DE000216CC1F34621B8EE411AB8EE422A013116
:100DF000B8EE433A81EE021A30EE032A21EE021ACF
:100E000002EE101AB8EE422A81EE021ABCEEC11AA6
:100E100080ED001AE16A09021FD501EE10EA02EE28
:100E2000103A03EE10CA216CC1F30641B8EE411A24
:100E3000B8EE422A0131B8EE433A81EE021A30EEA2
:100E4000032A21EE021A02EE101AB8EE422A81EEAF
:100E5000021ABCEEC11A80ED011AE16AC90158BF3D
:100E600010BD01EE10EA02EE103A03EE10CA216C3A
:100E7000C1F30661B8EE411AB8EE422A0131B8EE6C
:100E8000433A81EE021A30EE030A21EE000A01EE27
:100E9000101AB8EE411A80EE010ABCEEC00A80EDCD
:100EA000020A10BD616C9FED0E1AC1F3CC0100EE79
:100EB000101AB8EE400A20EE010A002B18BFBEF14E
:100EC000000F7FF480AF10BD226849F20003C0F22A
:100ED000D033C2F3C10223FA02FE61E70000000032
:100EE000000000390000000040F20001C2F20041A1
:100EF0000860704700000000FEE7000000000000EE
:100F0000FEE7000000000000704700000000000045
:100F10007047000000000000704700000000000063
:100F2000B0B542F200000422C5F20020016862F36D
:100F300003010160016801F00F0104290ED001686E
:100F400001F00F0104291EBF016801F00F010429FF
:100F500004D0016801F00F010429EBD144F60C0024
:100F60000222C5F6020044F20045C5F602050168FA
:100F700062F302010160C16841F44041C160286828
:100F800040F4803028602868800309D428688003F2
:100F90005CBF28685FEA803002D428688003F2D5FD
:100FA0002868022140F400202860A86A772261F3B3
:100FB0000100A862E86A012140F48030E862E86A32
:100FC00040F48020E862E86A40F00C00E862E86AD9
:100FD00020F00200E862A86A61F30910A862286B99
:100FE00062F308002863286B61F34F202863286BA5
:100FF00061F316402863286B61F31E60286328683C
:1010000040F0807028602868800109D42868800139
:101010005CBF28685FEA801002D428688001F2D59E
:10102000A869082161F30300A8612869032161F31D
:1010300002002861286900F0380018280ED02869BD
:1010400000F0380018281EBF286900F03800182862
:1010500004D0286900F038001828EBD1A8690821CD
:1010600020F47060A861A86943F6000461F30300EE
:10107000A861E869042161F30610E861E869C1F636
:101080009C4461F30A20E861A86961F30610A86135
:10109000286A61F3061028622046FFF7C9FB204644
:1010A000FFF722FF286840F400202860B0BD000050
:1010B0004EF6885042F2000CCEF20000C5F2002C31
:1010C000016841F470010160DCF8000000F00F00DD
:1010D000062806D8DCF80000072161F30300CCF8ED
:1010E000000044F200404EF67F52C5F60200CEF6F4
:1010F000F622016841F001010160002101610368ED
:101100001A400260DCF80020120706D5DCF8002047
:10111000072363F30302CCF8002040F20022816130
:10112000C161C0F20222016282620022C0F2FF129B
:10113000C26240F28022C0F2011202634163826304
:10114000C16302644164026822F480220260016685
:1011500041F20000C5F600400068B1EB507F05D1B8
:1011600048F208100121C5F20010016044F20000AD
:1011700043F2D201C5F20020016070470000000078
:10118000FEE70000000000008EB04EF60C5448F25E
:101190003F70CEF200040026BFF35F8FC4F8886072
:1011A000C1F20400C4F88C6044F2E047C4F89060D7
:1011B000C5F60207C4F894000520C4F888004FF66D
:1011C000FF01BFF34F8FBFF36F8F78694FF00409B2
:1011D00040F00200786178694FF0FF3200F00200C1
:1011E000079007982068084040F20031C0F2FA5199
:1011F00040F60048084320602068C5F60008C0F3A8
:10120000022080F00701042928BF4946033838BF6F
:10121000304602FA01F1C94301FA00F00001E0751D
:10122000FFF77EFE40F201100C96C0F2020004901F
:101230003868002540F0800038603868C5F602053F
:1012400000F0800000900098386840F0010038609D
:1012500038684FF0020A00F00100009000984FF447
:101260008020A8614FF60800CFF6FF7058F80010F4
:1012700021F0F00148F8001001A80396CDE901A67D
:10128000FFF75EF9E868012161F38300E8602868F0
:1012900020F00C002860CDE9079107A928464FF0FF
:1012A00003090B96CDE90996FFF75AFA4EF207406B
:1012B0002168CEF20000802106704EF20010CEF2BE
:1012C0000000016001A957F8880C20F0070047F8DA
:1012D000880C786940F008007861786900F00800AF
:1012E00007900798386840F001003860386800F0CF
:1012F0000100079007984FF4C060CDE9010A284625
:10130000CDE90366CDE90569FFF72AFA4FF4E1302C
:1013100007A9CDE908060C200796CDE90C06404642
:10132000CDE90A66FFF798FA40F60840C5F60000D6
:1013300050E8001F21F0604140E80012C2B150E8BF
:10134000001F21F0604140E80012002A1FBF50E852
:10135000001F21F0604140E80012002A08D050E848
:10136000001F21F0604140E80012002AE0D100BFD8
:1013700050E8001F21F0606140E80012BAB150E867
:10138000001F21F0606140E80012002A1FBF50E8F2
:10139000001F21F0606140E80012002A07D050E8E9
:1013A000001F21F0606140E80012002AE0D1D8F867
:1013B000000020F00050C8F8000040F61C40D8F8AB
:1013C0000010C5F6000041F00101C8F8001000BF90
:1013D0000168890244BF01685FEA412114D40168B1
:1013E000890244BF01685FEA41210DD40168890286
:1013F00044BF01685FEA412106D40168890244BF05
:1014000001685FEA4121E3D5FEE7F1EE100A4FF6ED
:10141000FF71C0F2C03120EA010040F04070E1EEFF
:10142000100A7047000000000102030401020304D7
:1014300006070809581400080000002408000000EE
:10144000D4020008601400080800002460060000B0
:10145000F0020008000000000090D0030090D003CC
:040000050800029954
:00000001FF
